{
  "contractName": "Decenttubegram",
  "abi": [
    {
      "constant": true,
      "inputs": [],
      "name": "name",
      "outputs": [
        {
          "name": "",
          "type": "string"
        }
      ],
      "payable": false,
      "stateMutability": "view",
      "type": "function"
    },
    {
      "constant": true,
      "inputs": [
        {
          "name": "",
          "type": "uint256"
        }
      ],
      "name": "medias",
      "outputs": [
        {
          "name": "id",
          "type": "uint256"
        },
        {
          "name": "mtype",
          "type": "uint8"
        },
        {
          "name": "hash",
          "type": "string"
        },
        {
          "name": "title",
          "type": "string"
        },
        {
          "name": "tipAmount",
          "type": "uint256"
        },
        {
          "name": "author",
          "type": "address"
        }
      ],
      "payable": false,
      "stateMutability": "view",
      "type": "function"
    },
    {
      "constant": true,
      "inputs": [],
      "name": "mediaCount",
      "outputs": [
        {
          "name": "",
          "type": "uint256"
        }
      ],
      "payable": false,
      "stateMutability": "view",
      "type": "function"
    },
    {
      "inputs": [],
      "payable": false,
      "stateMutability": "nonpayable",
      "type": "constructor"
    },
    {
      "anonymous": false,
      "inputs": [
        {
          "indexed": false,
          "name": "id",
          "type": "uint256"
        },
        {
          "indexed": false,
          "name": "mediatype",
          "type": "uint8"
        },
        {
          "indexed": false,
          "name": "hash",
          "type": "string"
        },
        {
          "indexed": false,
          "name": "title",
          "type": "string"
        },
        {
          "indexed": false,
          "name": "tipAmount",
          "type": "uint256"
        },
        {
          "indexed": false,
          "name": "author",
          "type": "address"
        }
      ],
      "name": "UploadMedia",
      "type": "event"
    },
    {
      "anonymous": false,
      "inputs": [
        {
          "indexed": false,
          "name": "id",
          "type": "uint256"
        },
        {
          "indexed": false,
          "name": "hash",
          "type": "string"
        },
        {
          "indexed": false,
          "name": "title",
          "type": "string"
        },
        {
          "indexed": false,
          "name": "tipAmount",
          "type": "uint256"
        },
        {
          "indexed": false,
          "name": "author",
          "type": "address"
        }
      ],
      "name": "MediaTipped",
      "type": "event"
    },
    {
      "constant": false,
      "inputs": [
        {
          "name": "_mediaHash",
          "type": "string"
        },
        {
          "name": "_title",
          "type": "string"
        },
        {
          "name": "_mtype",
          "type": "uint256"
        }
      ],
      "name": "uploadMedia",
      "outputs": [],
      "payable": false,
      "stateMutability": "nonpayable",
      "type": "function"
    },
    {
      "constant": false,
      "inputs": [
        {
          "name": "_id",
          "type": "uint256"
        }
      ],
      "name": "tipMediaOwner",
      "outputs": [],
      "payable": true,
      "stateMutability": "payable",
      "type": "function"
    }
  ],
  "bytecode": "0x60806040526040518060400160405280600e81526020017f446563656e74747562656772616d0000000000000000000000000000000000008152506000908051906020019061004f929190610067565b50600060025534801561006157600080fd5b5061010c565b828054600181600116156101000203166002900490600052602060002090601f016020900481019282601f106100a857805160ff19168380011785556100d6565b828001600101855582156100d6579182015b828111156100d55782518255916020019190600101906100ba565b5b5090506100e391906100e7565b5090565b61010991905b808211156101055760008160009055506001016100ed565b5090565b90565b610f418061011b6000396000f3fe60806040526004361061004a5760003560e01c806306fdde031461004f57806373f506d4146100df578063760d34bc14610248578063bafd2325146103be578063fba37b63146103e9575b600080fd5b34801561005b57600080fd5b50610064610417565b6040518080602001828103825283818151815260200191508051906020019080838360005b838110156100a4578082015181840152602081019050610089565b50505050905090810190601f1680156100d15780820380516001836020036101000a031916815260200191505b509250505060405180910390f35b3480156100eb57600080fd5b506102466004803603606081101561010257600080fd5b810190808035906020019064010000000081111561011f57600080fd5b82018360208201111561013157600080fd5b8035906020019184600183028401116401000000008311171561015357600080fd5b91908080601f016020809104026020016040519081016040528093929190818152602001838380828437600081840152601f19601f820116905080830192505050505050509192919290803590602001906401000000008111156101b657600080fd5b8201836020820111156101c857600080fd5b803590602001918460018302840111640100000000831117156101ea57600080fd5b91908080601f016020809104026020016040519081016040528093929190818152602001838380828437600081840152601f19601f820116905080830192505050505050509192919290803590602001909291905050506104b5565b005b34801561025457600080fd5b506102816004803603602081101561026b57600080fd5b81019080803590602001909291905050506107c9565b6040518087815260200186600181111561029757fe5b60ff16815260200180602001806020018581526020018473ffffffffffffffffffffffffffffffffffffffff1673ffffffffffffffffffffffffffffffffffffffff168152602001838103835287818151815260200191508051906020019080838360005b838110156103175780820151818401526020810190506102fc565b50505050905090810190601f1680156103445780820380516001836020036101000a031916815260200191505b50838103825286818151815260200191508051906020019080838360005b8381101561037d578082015181840152602081019050610362565b50505050905090810190601f1680156103aa5780820380516001836020036101000a031916815260200191505b509850505050505050505060405180910390f35b3480156103ca57600080fd5b506103d3610962565b6040518082815260200191505060405180910390f35b610415600480360360208110156103ff57600080fd5b8101908080359060200190929190505050610968565b005b60008054600181600116156101000203166002900480601f0160208091040260200160405190810160405280929190818152602001828054600181600116156101000203166002900480156104ad5780601f10610482576101008083540402835291602001916104ad565b820191906000526020600020905b81548152906001019060200180831161049057829003601f168201915b505050505081565b60008351116104c357600080fd5b60008251116104d157600080fd5b600073ffffffffffffffffffffffffffffffffffffffff163373ffffffffffffffffffffffffffffffffffffffff16141561050b57600080fd5b600060026000815480929190600101919050555060008214156105315760009050610536565b600190505b6040518060c00160405280600254815260200182600181111561055557fe5b8152602001858152602001848152602001600081526020013373ffffffffffffffffffffffffffffffffffffffff168152506001600060025481526020019081526020016000206000820151816000015560208201518160010160006101000a81548160ff021916908360018111156105ca57fe5b021790555060408201518160020190805190602001906105eb929190610e19565b506060820151816003019080519060200190610608929190610e19565b506080820151816004015560a08201518160050160006101000a81548173ffffffffffffffffffffffffffffffffffffffff021916908373ffffffffffffffffffffffffffffffffffffffff1602179055509050507fee2001a7bbed4c8ea99f9d2e39b8e45247f12886e51603819541221778161f8b6002548286866000336040518087815260200186600181111561069d57fe5b60ff16815260200180602001806020018581526020018473ffffffffffffffffffffffffffffffffffffffff1673ffffffffffffffffffffffffffffffffffffffff168152602001838103835287818151815260200191508051906020019080838360005b8381101561071d578082015181840152602081019050610702565b50505050905090810190601f16801561074a5780820380516001836020036101000a031916815260200191505b50838103825286818151815260200191508051906020019080838360005b83811015610783578082015181840152602081019050610768565b50505050905090810190601f1680156107b05780820380516001836020036101000a031916815260200191505b509850505050505050505060405180910390a150505050565b60016020528060005260406000206000915090508060000154908060010160009054906101000a900460ff1690806002018054600181600116156101000203166002900480601f01602080910402602001604051908101604052809291908181526020018280546001816001161561010002031660029004801561088e5780601f106108635761010080835404028352916020019161088e565b820191906000526020600020905b81548152906001019060200180831161087157829003601f168201915b505050505090806003018054600181600116156101000203166002900480601f01602080910402602001604051908101604052809291908181526020018280546001816001161561010002031660029004801561092c5780601f106109015761010080835404028352916020019161092c565b820191906000526020600020905b81548152906001019060200180831161090f57829003601f168201915b5050505050908060040154908060050160009054906101000a900473ffffffffffffffffffffffffffffffffffffffff16905086565b60025481565b60008111801561097a57506002548111155b61098357600080fd5b61098b610e99565b600160008381526020019081526020016000206040518060c0016040529081600082015481526020016001820160009054906101000a900460ff1660018111156109d157fe5b60018111156109dc57fe5b8152602001600282018054600181600116156101000203166002900480601f016020809104026020016040519081016040528092919081815260200182805460018160011615610100020316600290048015610a795780601f10610a4e57610100808354040283529160200191610a79565b820191906000526020600020905b815481529060010190602001808311610a5c57829003601f168201915b50505050508152602001600382018054600181600116156101000203166002900480601f016020809104026020016040519081016040528092919081815260200182805460018160011615610100020316600290048015610b1b5780601f10610af057610100808354040283529160200191610b1b565b820191906000526020600020905b815481529060010190602001808311610afe57829003601f168201915b50505050508152602001600482015481526020016005820160009054906101000a900473ffffffffffffffffffffffffffffffffffffffff1673ffffffffffffffffffffffffffffffffffffffff1673ffffffffffffffffffffffffffffffffffffffff1681525050905060008160a0015190508073ffffffffffffffffffffffffffffffffffffffff166108fc349081150290604051600060405180830381858888f19350505050158015610bd5573d6000803e3d6000fd5b503482608001510182608001818152505081600160008581526020019081526020016000206000820151816000015560208201518160010160006101000a81548160ff02191690836001811115610c2857fe5b02179055506040820151816002019080519060200190610c49929190610e19565b506060820151816003019080519060200190610c66929190610e19565b506080820151816004015560a08201518160050160006101000a81548173ffffffffffffffffffffffffffffffffffffffff021916908373ffffffffffffffffffffffffffffffffffffffff1602179055509050507f5a82a816e04e58e6f5c2c6e1fd4e54d715a0ea4949bc9e383a2725ee63785de083836040015184606001518560800151856040518086815260200180602001806020018581526020018473ffffffffffffffffffffffffffffffffffffffff1673ffffffffffffffffffffffffffffffffffffffff168152602001838103835287818151815260200191508051906020019080838360005b83811015610d6f578082015181840152602081019050610d54565b50505050905090810190601f168015610d9c5780820380516001836020036101000a031916815260200191505b50838103825286818151815260200191508051906020019080838360005b83811015610dd5578082015181840152602081019050610dba565b50505050905090810190601f168015610e025780820380516001836020036101000a031916815260200191505b5097505050505050505060405180910390a1505050565b828054600181600116156101000203166002900490600052602060002090601f016020900481019282601f10610e5a57805160ff1916838001178555610e88565b82800160010185558215610e88579182015b82811115610e87578251825591602001919060010190610e6c565b5b509050610e959190610ef0565b5090565b6040518060c001604052806000815260200160006001811115610eb857fe5b8152602001606081526020016060815260200160008152602001600073ffffffffffffffffffffffffffffffffffffffff1681525090565b610f1291905b80821115610f0e576000816000905550600101610ef6565b5090565b9056fea165627a7a72305820cba36687e4d3483e938e226b5cd04bce451ab7e7c15c08aa0684ea868cf28b990029",
  "source": "pragma solidity ^0.5.0;\n\n// [x] 1. Model the Media\n// [x] 2. Store the Media\n// [x] 3. Upload the Media\n// [x] 4. List the Media\n\ncontract Decenttubegram {\n  // Code goes here...\n  string public name = \"Decenttubegram\";\n\n  mapping(uint => Media) public medias;\n\n  uint public mediaCount = 0;\n\n  enum Mediatype {IMAGE, VIDEO}\n  \n  struct Media {\n    uint id;\n    Mediatype mtype;\n    string hash;\n    string title;\n    uint tipAmount;\n    address payable author;\n  }\n\n  event UploadMedia (\n  \tuint id,\n    Mediatype mediatype,  \n  \tstring hash,\n  \tstring title,\n  \tuint tipAmount,\n  \taddress payable author\n  );\n\n  event MediaTipped (\n  \tuint id,\n  \tstring hash,\n  \tstring title,\n  \tuint tipAmount,\n  \taddress payable author\n  );\n\n  constructor() public {\n\n  }\n\n  // create Media\n  function uploadMedia(string memory _mediaHash, string memory _title, uint _mtype) public {\n  \t\n  \t// make sure image hash exists\n  \trequire(bytes(_mediaHash).length > 0);\n\n  \t// make sure descrption hash exists\n  \trequire(bytes(_title).length > 0);\n\n  \t// make sure descrption hash exists\n  \trequire(msg.sender != address(0x0));\n\n    Mediatype _mediatype;\n\n  \t// Media count\n  \tmediaCount ++;\n  \t\n    if (_mtype == 0) {\n        _mediatype = Mediatype.IMAGE;\n      } else {\n        _mediatype = Mediatype.VIDEO;\n      }\n\n  \t// add Media\n  \tmedias[mediaCount] = Media(mediaCount, _mediatype, _mediaHash ,_title, 0, msg.sender);\n\n  \t// trigger an event\n  \temit UploadMedia(mediaCount, _mediatype, _mediaHash ,_title, 0, msg.sender);\n  }\n\n  // Tip Images\n  function tipMediaOwner(uint _id) public payable {\n\n  \trequire(_id > 0 && _id <= mediaCount);\n\n  \tMedia memory _media = medias[_id];\n\n  \taddress payable _author = _media.author;\n  \taddress(_author).transfer(msg.value);\n  \t_media.tipAmount = _media.tipAmount + msg.value;\n  \tmedias[_id]\t= _media;\n\n  \temit MediaTipped(_id, _media.hash, _media.title, _media.tipAmount, _author);\n  }\n}",
  "sourcePath": "/Users/pkwok/Xproject/4. Blockchain/dappuniversity/decenttubegram/src/contracts/Decenttubegram.sol",
  "compiler": {
    "name": "solc",
    "version": "0.5.8+commit.23d335f2.Emscripten.clang"
  },
  "schemaVersion": "3.0.16",
  "updatedAt": "2021-01-09T13:50:38.518Z",
  "devdoc": {
    "methods": {}
  },
  "userdoc": {
    "methods": {}
  }
}